:100000000C9438000C9455000C9455000C94550039
:100010000C9455000C9455000C9455000C9455000C
:100020000C9455000C9455000C9455000C945500FC
:100030000C9455000C9455000C9455000C945500EC
:100040000C9455000C9455000C9455000C945500DC
:100050000C9455000C9455000C9455000C945500CC
:100060000C9455000C9455000C9455000C945500BC
:1000700011241FBECFEFD4E0DEBFCDBF11E0A0E062
:10008000B1E0ECE2FFE002C005900D92A43BB107A5
:10009000D9F721E0A4EBB1E001C01D92A23CB20768
:1000A000E1F70E9457000C9494070C9400000E9402
:1000B0006E010E94AA020E94EF000E942E020E947E
:1000C0007D01D82F192F0E94F401C82F8130C1F46F
:1000D000812F012E000C990B9F931F938D2F0D2EB6
:1000E000000C990B9F93DF9388E091E09F938F938F
:1000F0000E9442030F900F900F900F900F900F905F
:10010000C230C1F4812F012E000C990B9F931F93D5
:100110008D2F0D2E000C990B9F93DF938AE191E0B8
:100120009F938F930E9442030F900F900F900F9018
:100130000F900F90C330C1F4812F012E000C990B4A
:100140009F931F938D2F0D2E000C990B9F93DF9380
:100150008CE291E09F938F930E9442030F900F9047
:100160000F900F900F900F90C430C1F4812F012E8B
:10017000000C990B9F931F938D2F0D2E000C990B44
:100180009F93DF9382E491E09F938F930E944203B9
:100190000F900F900F900F900F900F90C11118C0FB
:1001A000812F012E000C990B9F931F938D2F0D2EE5
:1001B000000C990B9F93DF9386E591E09F938F93BB
:1001C0000E9442030F900F900F900F900F900F908E
:1001D00064E670E080E090E00E94990270CF81B305
:1001E000806181BBEBE8F0E0808180648083EAE895
:1001F000F0E08081896080831092870010928600F1
:10020000EFEFF3E188E0808388E4808388E88083EF
:1002100088EC8083089590E060E010C0482F417022
:1002200050E027E030E0291B3109FA0102C0EE0F4F
:10023000FF1F2A95E2F76E2B86959F5F983070F32B
:10024000862F0895EF92FF920F931F93CF937C0117
:100250001092FF138399FECF839BFECFC0E00AC0AC
:1002600087010C0F111D8091FF130E940B01F801F3
:100270008083CF5FC430A0F3CF911F910F91FF9087
:10028000EF90089510BC8FE189B988E18AB908958B
:100290005D9BFECF8CB90895CF93C82F8A3019F497
:1002A0008DE00E9448018C2F0E94480180E090E080
:1002B000CF91089520E137E2C9015F9BFECF9C01F9
:1002C00021503109892BC1F7232B11F08CB10895EE
:1002D0008EEF08950E945A0190E008950E94420115
:1002E0006AE671E08CE491E00E94F702E8EBF1E04D
:1002F000938382839183808308950F931F93CF9379
:10030000DF9300D000D0CDB7DEB7CE0101960E94BA
:10031000220149812A813091B6014317A0F0E32FD1
:10032000F0E0642F70E06E1B7F0B54E6569FC00117
:10033000579F900D11246091B70170E06E1B7F0BE9
:100340000E94B502062F431790F4632F70E050E02F
:10035000461B570BE4E6E49FC001E59F900D112476
:1003600040910701641B71090E94B502062F2317F3
:10037000A8F04091B40150E0622F70E0641B750B4F
:10038000E4E6E69FC001E79F900D11246091B5015E
:1003900070E0641B750B0E94B502162F231798F4AA
:1003A0006091B40170E030E0261B370B44E6429FB9
:1003B000C001439F900D112420910601621B710919
:1003C0000E94B502162F0A3008F400E01A3008F433
:1003D00010E0802F912F0F900F900F900F90DF91D2
:1003E000CF911F910F910895CF93DF9300D000D04C
:1003F000CDB7DEB7CE0101960E94220129816A8124
:1004000030E08091B60190E0AC01465F5F4F42174B
:100410005307B4F00A9728173907A4F0862F90E005
:100420002091B40130E0A901465F5F4F481759079A
:100430005CF02A5031098217930744F482E007C028
:1004400084E005C083E003C081E001C080E00F903C
:100450000F900F900F90DF91CF910895CF92DF9280
:10046000EF92FF92CF93DF9300D000D0CDB7DEB7ED
:100470000E946E0189E691E00E94580368E873E1EA
:1004800080E090E00E949902CE0101960E94220134
:1004900089818093B6018A818093B40182E891E0DA
:1004A0000E9458030F2EF8E8CF2EF3E1DF2EE12C47
:1004B000F12CF02D29C0CE0101960E9422019981D4
:1004C0008A812091B701291710F49093B7012091E8
:1004D0000701921710F4909307019091B5019817B6
:1004E00010F48093B50190910601891710F4809360
:1004F000060181E0C81AD108E108F10861E070E066
:1005000080E090E00E94990282E0C816D104E104E4
:10051000F10488F683EA91E00E9458030F900F904F
:100520000F900F90DF91CF91FF90EF90DF90CF90E1
:1005300008959B01AC01ABEEB1E00E94C90204C07A
:100540006150710981099109623071058105910538
:10055000B8F7089580B7806280BF86B786BF85B739
:1005600085BF85B7806885BF089597FB072E16F471
:10057000009407D077FD09D00E94D40207FC05D073
:100580003EF4909581959F4F0895709561957F4FAA
:1005900008950E94E802A59F900DB49F900DA49F1E
:1005A000800D911D11240895AA1BBB1B51E107C0AA
:1005B000AA1FBB1FA617B70710F0A61BB70B881FF3
:1005C000991F5A95A9F780959095BC01CD01089582
:1005D000A29FB001B39FC001A39F700D811D112484
:1005E000911DB29F700D811D1124911D08950F93CF
:1005F0001F93CF93DF93009731F46115710519F4C0
:1006000080E090E03AC08B01EC016EE070E081E0A8
:1006100090E00E946905FC01892B91F380E88383B7
:100620000115110571F01387028781E8838380919A
:10063000B8019091B901892B21F4F093B901E093AD
:10064000B8012097C9F0D187C087838182608383F6
:100650008091BA019091BB01892B71F4F093BB0199
:10066000E093BA018091BC019091BD01892B21F4E6
:10067000F093BD01E093BC01CF01DF91CF911F91B9
:100680000F910895A0E0B0E0E8E4F3E00C946D076A
:10069000AE014B5F5F4FFA0161917191AF018091A3
:1006A000BA019091BB010E948803E2E00C94890793
:1006B0000F931F93CF93DF93E091BA01F091BB01A9
:1006C000238121FF1BC08C01D0E0C0E0F8018191A3
:1006D0008F016091BA017091BB01DB011896ED9119
:1006E000FC911997882331F00995892B79F3DFEF75
:1006F000CFEFECCF8AE00995892B19F08FEF9FEFB0
:1007000002C08D2F9C2FDF91CF911F910F910895E3
:10071000ABE0B0E0EEE8F3E00C945D076C017B0128
:100720008A01FC0117821682838181FFCCC1CE0130
:1007300001963C01F6019381F70193FD859193FFAA
:1007400081917F01882309F4BAC1853239F493FD80
:10075000859193FF81917F01853229F4B60190E064
:100760000E94C306E7CF912C212C312CFFE1F31519
:10077000D8F08B3279F038F4803279F08332A1F4FA
:10078000232D20611DC08D3261F0803369F4232D4B
:10079000216016C0832D8260382EE32DE4603E2E4A
:1007A0002AC0F32DF8601DC037FC2DC020ED280FA6
:1007B0002A3040F08E32B9F436FC81C1232D2064FA
:1007C000322E19C036FE06C08AE0989E200D1124F4
:1007D000922E11C0EAE02E9E200D1124222EF32D20
:1007E000F0623F2E08C08C3621F4832D8068382EAD
:1007F00002C0883641F4F70193FD859193FF819102
:100800007F018111B3CF982F9F7D9554933028F4A9
:100810000C5F1F4F9FE399830DC0833631F0833700
:1008200071F0833509F059C021C0F80180818983B6
:100830000E5F1F4F88248394912C530113C028010D
:10084000F2E04F0E511CF801A080B18036FE03C0CB
:10085000692D70E002C06FEF7FEFC5010E94B806FE
:100860004C018201F32DFF773F2E16C0280122E0B4
:10087000420E511CF801A080B18036FE03C0692DE4
:1008800070E002C06FEF7FEFC5010E94A6064C0129
:10089000F32DF0683F2E820133FC1BC0822D90E0C7
:1008A00088169906B0F4B60180E290E00E94C30673
:1008B0002A94F4CFF50137FC859137FE81915F01D1
:1008C000B60190E00E94C30621102A9421E0821A0A
:1008D00091088114910471F7E8C0843611F08936CB
:1008E00041F5F80137FE07C06081718182819381F3
:1008F0000C5F1F4F08C060817181072E000C880BB0
:10090000990B0E5F1F4FF32DFF763F2E97FF09C007
:1009100090958095709561957F4F8F4F9F4FF068B0
:100920003F2E2AE030E0A3010E94FF06882E8618A1
:1009300045C0853731F4232D2F7EB22E2AE030E0DA
:1009400025C0932D997FB92E8F36C1F018F48835C4
:1009500079F0B5C0803719F0883721F0B0C0E92FA1
:10096000E061BE2EB4FE0DC0FB2DF460BF2E09C0A9
:1009700034FE0AC0292F2660B22E06C028E030E0DF
:1009800005C020E130E002C020E132E0F801B7FE0E
:1009900007C060817181828193810C5F1F4F06C007
:1009A0006081718180E090E00E5F1F4FA3010E9483
:1009B000FF06882E8618FB2DFF773F2E36FE0DC0D2
:1009C000232D2E7FA22E891458F434FE0BC032FC46
:1009D00009C0832D8E7EA82E05C0B82CA32C03C081
:1009E000B82C01C0B92CA4FE0FC0FE01E80DF11D0A
:1009F0008081803321F49A2D997EA92E09C0A2FE10
:100A000006C0B394B39404C08A2D867809F0B394D9
:100A1000A3FC11C0A0FE06C0B21488F4280C922CCE
:100A20009B180EC0B21460F4B60180E290E00E9400
:100A3000C306B394F7CFB21418F42B1802C0982C45
:100A4000212CA4FE10C0B60180E390E00E94C306F2
:100A5000A2FE17C0A1FC03C088E790E002C088E5B1
:100A600090E0B6010CC08A2D867859F0A1FE02C034
:100A70008BE201C080E2A7FC8DE2B60190E00E940B
:100A8000C306891438F4B60180E390E00E94C306DF
:100A90009A94F7CF8A94F301E80DF11D8081B60195
:100AA00090E00E94C3068110F5CF222009F442CEC7
:100AB000B60180E290E00E94C3062A94F6CFF601C8
:100AC0008681978102C08FEF9FEF2B96E2E10C9415
:100AD00079070F931F93CF93DF93869F8001879FA2
:100AE000100D969F100D1124C8010E948505EC0180
:100AF000009729F0A80160E070E00E94B106CE01E5
:100B0000DF91CF911F910F9108950F931F93CF9372
:100B1000DF938230910510F482E090E0E091C00113
:100B2000F091C10120E030E0A0E0B0E0309719F191
:100B3000408151810281138148175907C8F08417F9
:100B4000950769F4109731F012960C93129713964B
:100B50001C9327C00093C0011093C10122C021152E
:100B6000310519F04217530718F49A01BD01EF013E
:100B7000DF01F801DBCF21153105F9F0281B390B16
:100B80002430310580F48A819B816115710521F043
:100B9000FB019383828304C09093C1018093C001C1
:100BA000FE01329644C0FE01E20FF31F8193919340
:100BB00022503109398328833AC02091BE013091F7
:100BC000BF01232B41F420910201309103013093A6
:100BD000BF012093BE012091000130910101211538
:100BE000310541F42DB73EB7409104015091050104
:100BF000241B350BE091BE01F091BF01E217F30712
:100C0000A0F42E1B3F0B2817390778F0AC014E5F7C
:100C10005F4F2417350748F04E0F5F1F5093BF01F9
:100C20004093BE018193919302C0E0E0F0E0CF01D8
:100C3000DF91CF911F910F910895CF93DF9300978C
:100C400009F481C0FC01329713821282A091C00185
:100C5000B091C101109781F420813181820F931FDF
:100C60002091BE013091BF012817390751F5F0934B
:100C7000BF01E093BE0167C0ED0120E030E0CE1778
:100C8000DF0740F44A815B819E0141155105F1F077
:100C9000EA01F5CFD383C28340815181840F951F30
:100CA000C817D90759F488819981840F951F029636
:100CB000918380838A819B8193838283211531056F
:100CC00029F4F093C101E093C0013DC0E901FB8329
:100CD000EA8349915991C40FD51FEC17FD0761F4C0
:100CE00080819181840F951F0296E9019983888301
:100CF000828193819B838A83E0E0F0E012968D915C
:100D00009C911397009719F0FD01DC01F7CF8D91AD
:100D10009C9111979D012E5F3F4F820F931F209151
:100D2000BE013091BF012817390769F4309729F4C3
:100D30001092C1011092C00102C013821282B093BE
:100D4000BF01A093BE01DF91CF910895FC010590F2
:100D5000615070400110D8F7809590958E0F9F1FBD
:100D60000895DC0101C06D9341505040E0F70895B3
:100D7000FC016150704001900110D8F7809590956A
:100D80008E0F9F1F08950F931F93CF93DF93FB0147
:100D9000238121FD03C08FEF9FEF2CC022FF16C0DF
:100DA00046815781248135814217530744F4A0813D
:100DB000B1819D012F5F3F4F318320838C9326812A
:100DC00037812F5F3F4F3783268314C08B01EC019F
:100DD000FB010084F185E02D0995892BE1F6D8010E
:100DE00016968D919C911797019617969C938E93CA
:100DF0001697CE01DF91CF911F910F910895FA01BF
:100E0000AA27283051F1203181F1E8946F936E7F49
:100E10006E5F7F4F8F4F9F4FAF4FB1E03ED0B4E03A
:100E20003CD0670F781F891F9A1FA11D680F791F7B
:100E30008A1F911DA11D6A0F711D811D911DA11D8C
:100E400020D009F468943F912AE0269F112430199C
:100E5000305D3193DEF6CF010895462F4770405D37
:100E60004193B3E00FD0C9F7F6CF462F4F70405DE6
:100E70004A3318F0495D31FD4052419302D0A9F741
:100E8000EACFB4E0A6959795879577956795BA953B
:100E9000C9F700976105710508959B01AC010A2E01
:100EA00006945795479537952795BA95C9F7620FD8
:100EB000731F841F951FA01D08952F923F924F927C
:100EC0005F926F927F928F929F92AF92BF92CF92DA
:100ED000DF92EF92FF920F931F93CF93DF93CDB7E3
:100EE000DEB7CA1BDB0B0FB6F894DEBF0FBECDBF5B
:100EF00009942A88398848885F846E847D848C842C
:100F00009B84AA84B984C884DF80EE80FD800C8134
:100F10001B81AA81B981CE0FD11D0FB6F894DEBF17
:0C0F20000FBECDBFED010895F894FFCF87
:100F2C000000C2012000FFFF583A20256409593AFD
:100F3C0020256420206F70700A00583A202564091F
:100F4C00593A20256420206E65640A00583A202501
:100F5C006409593A202564202076656E7374726595
:100F6C000A00583A20256409593A20256420206843
:100F7C006F7972650A00583A20256409593A202580
:100F8C006420206D6964740A00486F6C64206A6F79
:100F9C0079737469636B656E2069206D696474651F
:100FAC006E004265766567206A6F79737469636B4E
:100FBC00656E2072756E64742069207369726B6C37
:100FCC00657200466572646967206B616C69627258
:040FDC0065727400C6
:00000001FF
