S01B000042696742656175746966756C42726F6A6563742E737265638D
S11300000C9438000C9455000C9455000C94550035
S11300100C9455000C9455000C9455000C94550008
S11300200C9455000C9455000C9455000C945500F8
S11300300C9455000C9455000C9455000C945500E8
S11300400C9455000C9455000C9455000C945500D8
S11300500C9455000C9455000C9455000C945500C8
S11300600C9455000C9455000C9455000C945500B8
S113007011241FBECFEFD4E0DEBFCDBF11E0A0E05E
S1130080B1E0E6EBFDE002C005900D92AA36B1079F
S1130090D9F721E0AAE6B1E001C01D92AE37B2075C
S11300A0E1F70E9457000C94D9060C9400000E94BA
S11300B081010E9417020E9483000E9414010E9481
S11300C090010E94D600EEE6F1E0228191818081C8
S11300D01F922F931F929F931F928F9388E091E01A
S11300E09F938F930E94870264E670E080E090E023
S11300F00E94FB018DB79EB708960FB6F8949EBF79
S11301000FBE8DBFDECF81B3806181BBEBE8F0E031
S1130110808180648083EAE8F0E080818960808364
S11301201092870010928600EFEFF3E188E080835D
S113013088E4808388E8808388EC8083089590E055
S113014060E010C0482F417050E027E030E0291BE8
S11301503109FA0102C0EE0FFF1F2A95E2F76E2B58
S113016086959F5F983070F3862F0895EF92FF92E3
S11301700F931F93CF937C011092FF138399FECFAB
S1130180839BFECFC0E00AC087010C0F111D809134
S1130190FF130E949F00F8018083CF5FC430A0F357
S11301A0CF911F910F91FF90EF900895CF93DF931C
S11301B000D01F92CDB7DEB760E084E00E9420013A
S11301C068E270E080E090E00E940C0240E063E0AE
S11301D070E0CE0101960E942C018981EEE6F1E0E7
S11301E080838A8181838B8182830F900F900F900B
S11301F0DF91CF91089588B38A6188BB0895CF9326
S1130200C82F0E94FB00C23019F488B38D7F88BBCD
S1130210C13019F488B3877F88BBC11103C088B388
S11302208F7E88BBCF91089587B38A6B87BB0E946A
S1130230FB008DB180618DB98DB180648DB9089555
S1130240CF93C82F862F0E94FF00CFB9779BFECF94
S11302500E94FB00CF910895EF92FF920F931F939A
S1130260CF93DF937C018B01842F0E94FF00C0E0B9
S1130270D0E00FC01FB8779BFECFF701EC0FFD1F36
S11302808FB1808364E170E080E090E00E940C0212
S11302902196C017D10770F30E94FB00DF91CF9124
S11302A01F910F91FF90EF90089510BC8FE189B9D1
S11302B088E18AB908955D9BFECF8CB90895CF93E8
S11302C0C82F8A3019F48DE00E945B018C2F0E94A4
S11302D05B0180E090E0CF91089520E137E2C9010D
S11302E05F9BFECF9C0121503109892BC1F7232B41
S11302F011F08CB108958EEF08950E946D0190E085
S113030008950E9455016DE771E08FE591E00E9428
S11303103C02E4E7F1E09383828391838083089530
S1130320CF92DF92EF92FF92CF93DF9300D000D071
S1130330CDB7DEB70E9481018EE191E00E949D025B
S113034068E873E180E090E00E94FB01CE01019631
S11303500E94B600898180936C018A8180936A012E
S113036087E391E00E949D020F2EF8E8CF2EF3E17F
S1130370DF2EE12CF12CF02D29C0CE0101960E9434
S1130380B60099818A8120916D01291710F4909308
S11303906D0120910701921710F490930701909139
S11303A06B01981710F480936B01909106018917E3
S11303B010F48093060181E0C81AD108E108F1081D
S11303C061E070E080E090E00E94FB0182E0C816EA
S11303D0D104E104F10488F688E591E00E949D02CD
S11303E00F900F900F900F90DF91CF91FF90EF90AF
S11303F0DF90CF9008959B01AC01ABEEB1E00E9479
S1130400220204C0615071098109910962307105A9
S113041081059105B8F7089504C0615071098109F7
S113042091096230710581059105B8F7089580B787
S1130430806280BF86B786BF85B785BF85B7806871
S113044085BF08950E942D02A59F900DB49F900D25
S1130450A49F800D911D11240895A29FB001B39F04
S1130460C001A39F700D811D1124911DB29F700DB9
S1130470811D1124911D08950F931F93CF93DF9332
S1130480009731F46115710519F480E090E03AC0E9
S11304908B01EC016EE070E081E090E00E94AE041C
S11304A0FC01892B91F380E883830115110571F018
S11304B01387028781E88383809174019091750189
S11304C0892B21F4F0937501E09374012097C9F00E
S11304D0D187C087838182608383809176019091E4
S11304E07701892B71F4F0937701E0937601809181
S11304F0780190917901892B21F4F0937901E093AB
S11305007801CF01DF91CF911F910F910895A0E061
S1130510B0E0EDE8F2E00C94B206AE014B5F5F4F41
S1130520FA0161917191AF01809176019091770107
S11305300E94CD02E2E00C94CE060F931F93CF935A
S1130540DF93E0917601F0917701238121FF1BC0B5
S11305508C01D0E0C0E0F80181918F0160917601B7
S113056070917701DB011896ED91FC91199788231E
S113057031F00995892B79F3DFEFCFEFECCF8AE0E7
S11305800995892B19F08FEF9FEF02C08D2F9C2FB7
S1130590DF91CF911F910F910895ABE0B0E0E3EDAF
S11305A0F2E00C94A2066C017B018A01FC01178223
S11305B01682838181FFCCC1CE0101963C01F601F4
S11305C09381F70193FD859193FF81917F018823A6
S11305D009F4BAC1853239F493FD859193FF819171
S11305E07F01853229F4B60190E00E940806E7CF26
S11305F0912C212C312CFFE1F315D8F08B3279F0BA
S113060038F4803279F08332A1F4232D20611DC0A7
S11306108D3261F0803369F4232D216016C0832D5F
S11306208260382EE32DE4603E2E2AC0F32DF8605C
S11306301DC037FC2DC020ED280F2A3040F08E322B
S1130640B9F436FC81C1232D2064322E19C036FE44
S113065006C08AE0989E200D1124922E11C0EAE073
S11306602E9E200D1124222EF32DF0623F2E08C061
S11306708C3621F4832D8068382E02C0883641F4EC
S1130680F70193FD859193FF81917F018111B3CF90
S1130690982F9F7D9554933028F40C5F1F4F9FE350
S11306A099830DC0833631F0833771F0833509F0B7
S11306B059C021C0F801808189830E5F1F4F8824AF
S11306C08394912C530113C02801F2E04F0E511C66
S11306D0F801A080B18036FE03C0692D70E002C02D
S11306E06FEF7FEFC5010E94FD054C018201F32DE0
S11306F0FF773F2E16C0280122E0420E511CF8015C
S1130700A080B18036FE03C0692D70E002C06FEF97
S11307107FEFC5010E94EB054C01F32DF0683F2EDD
S1130720820133FC1BC0822D90E088169906B0F438
S1130730B60180E290E00E9408062A94F4CFF50105
S113074037FC859137FE81915F01B60190E00E94EC
S1130750080621102A9421E0821A91088114910438
S113076071F7E8C0843611F0893641F5F80137FE97
S113077007C060817181828193810C5F1F4F08C023
S113078060817181072E000C880B990B0E5F1F4F3F
S1130790F32DFF763F2E97FF09C0909580957095B5
S11307A061957F4F8F4F9F4FF0683F2E2AE030E0D6
S11307B0A3010E944406882E861845C0853731F46B
S11307C0232D2F7EB22E2AE030E025C0932D997F71
S11307D0B92E8F36C1F018F4883579F0B5C080375A
S11307E019F0883721F0B0C0E92FE061BE2EB4FEC5
S11307F00DC0FB2DF460BF2E09C034FE0AC0292FA2
S11308002660B22E06C028E030E005C020E130E0CA
S113081002C020E132E0F801B7FE07C060817181B7
S1130820828193810C5F1F4F06C06081718180E0DB
S113083090E00E5F1F4FA3010E944406882E861885
S1130840FB2DFF773F2E36FE0DC0232D2E7FA22ECB
S1130850891458F434FE0BC032FC09C0832D8E7EFB
S1130860A82E05C0B82CA32C03C0B82C01C0B92CE9
S1130870A4FE0FC0FE01E80DF11D8081803321F438
S11308809A2D997EA92E09C0A2FE06C0B394B394F2
S113089004C08A2D867809F0B394A3FC11C0A0FE8D
S11308A006C0B21488F4280C922C9B180EC0B21403
S11308B060F4B60180E290E00E940806B394F7CF9A
S11308C0B21418F42B1802C0982C212CA4FE10C0CA
S11308D0B60180E390E00E940806A2FE17C0A1FCC6
S11308E003C088E790E002C088E590E0B6010CC040
S11308F08A2D867859F0A1FE02C08BE201C080E205
S1130900A7FC8DE2B60190E00E940806891438F431
S1130910B60180E390E00E9408069A94F7CF8A9487
S1130920F301E80DF11D8081B60190E00E940806F4
S11309308110F5CF222009F442CEB60180E290E086
S11309400E9408062A94F6CFF6018681978102C098
S11309508FEF9FEF2B96E2E10C94BE060F931F934B
S1130960CF93DF93869F8001879F100D969F100D74
S11309701124C8010E94CA04EC01009729F0A801BF
S113098060E070E00E94F605CE01DF91CF911F91E7
S11309900F9108950F931F93CF93DF9382309105A6
S11309A010F482E090E0E0917C01F0917D0120E080
S11309B030E0A0E0B0E0309719F14081518102812C
S11309C0138148175907C8F08417950769F41097DD
S11309D031F012960C93129713961C9327C0009330
S11309E07C0110937D0122C02115310519F04217B5
S11309F0530718F49A01BD01EF01DF01F801DBCFC1
S1130A0021153105F9F0281B390B2430310580F408
S1130A108A819B816115710521F0FB019383828397
S1130A2004C090937D0180937C01FE01329644C002
S1130A30FE01E20FF31F8193919322503109398310
S1130A4028833AC020917A0130917B01232B41F411
S1130A50209102013091030130937B0120937A01AC
S1130A6020910001309101012115310541F42DB788
S1130A703EB74091040150910501241B350BE091D0
S1130A807A01F0917B01E217F307A0F42E1B3F0BD0
S1130A902817390778F0AC014E5F5F4F24173507EC
S1130AA048F04E0F5F1F50937B0140937A0181936E
S1130AB0919302C0E0E0F0E0CF01DF91CF911F916C
S1130AC00F910895CF93DF93009709F481C0FC013F
S1130AD0329713821282A0917C01B0917D0110970C
S1130AE081F420813181820F931F20917A0130910A
S1130AF07B012817390751F5F0937B01E0937A01C4
S1130B0067C0ED0120E030E0CE17DF0740F44A81F2
S1130B105B819E0141155105F1F0EA01F5CFD383C4
S1130B20C28340815181840F951FC817D90759F496
S1130B3088819981840F951F0296918380838A818D
S1130B409B81938382832115310529F4F0937D01E0
S1130B50E0937C013DC0E901FB83EA83499159910B
S1130B60C40FD51FEC17FD0761F480819181840FB8
S1130B70951F0296E90199838883828193819B83DF
S1130B808A83E0E0F0E012968D919C911397009790
S1130B9019F0FD01DC01F7CF8D919C9111979D0116
S1130BA02E5F3F4F820F931F20917A0130917B017A
S1130BB02817390769F4309729F410927D011092AF
S1130BC07C0102C013821282B0937B01A0937A014C
S1130BD0DF91CF910895FC010590615070400110A0
S1130BE0D8F7809590958E0F9F1F0895DC0101C062
S1130BF06D9341505040E0F70895FC0161507040FE
S1130C0001900110D8F7809590958E0F9F1F08953D
S1130C100F931F93CF93DF93FB01238121FD03C027
S1130C208FEF9FEF2CC022FF16C04681578124818D
S1130C3035814217530744F4A081B1819D012F5F90
S1130C403F4F318320838C93268137812F5F3F4F21
S1130C503783268314C08B01EC01FB010084F185EA
S1130C60E02D0995892BE1F6D80116968D919C917A
S1130C701797019617969C938E931697CE01DF9142
S1130C80CF911F910F910895FA01AA27283051F1AD
S1130C90203181F1E8946F936E7F6E5F7F4F8F4FA9
S1130CA09F4FAF4FB1E03ED0B4E03CD0670F781F08
S1130CB0891F9A1FA11D680F791F8A1F911DA11DED
S1130CC06A0F711D811D911DA11D20D009F4689426
S1130CD03F912AE0269F11243019305D3193DEF6CE
S1130CE0CF010895462F4770405D4193B3E00FD084
S1130CF0C9F7F6CF462F4F70405D4A3318F0495D6F
S1130D0031FD4052419302D0A9F7EACFB4E0A69551
S1130D109795879577956795BA95C9F70097610573
S1130D20710508959B01AC010A2E069457954795C9
S1130D3037952795BA95C9F7620F731F841F951FBE
S1130D40A01D08952F923F924F925F926F927F92CF
S1130D508F929F92AF92BF92CF92DF92EF92FF92C7
S1130D600F931F93CF93DF93CDB7DEB7CA1BDB0B73
S1130D700FB6F894DEBF0FBECDBF09942A88398818
S1130D8048885F846E847D848C849B84AA84B9841F
S1130D90C884DF80EE80FD800C811B81AA81B9812B
S1130DA0CE0FD11D0FB6F894DEBF0FBECDBFED013F
S1090DB00895F894FFCF42
S1130DB600007E012000FFFF583A2025642C2059AC
S1130DC62025642C2042746E202564200A00486F76
S1130DD66C64206A6F79737469636B656E2069202D
S1130DE66D696474656E004265766567206A6F791D
S1130DF6737469636B656E2072756E647420692002
S1130E067369726B6C657200466572646967206B00
S10D0E16616C696272657274000079
S9030000FC
