S01B000042696742656175746966756C42726F6A6563742E737265638D
S11300000C94B4010C94D1010C94D1010C94D10141
S11300100C94D1010C94D1010C94D1010C94D10114
S11300200C94D1010C94D1010C94D1010C94D10104
S11300300C94D1010C94D1010C94D1010C94D101F4
S11300400C94D1010C94D1010C94D1010C94D101E4
S11300500C94D1010C94D1010C94D1010C94D101D4
S11300600C94D1010C94D1010C94D1010C94D101C4
S1130070000000000000000000065F5F06000000B2
S11300800007070007070000147F7F147F7F140018
S1130090242E6B6B3A120000466630180C66620020
S11300A0307A4F5D377A48000407030000000000EF
S11300B0001C3E63410000000041633E1C00000040
S11300C0082A3E1C1C3E2A0808083E3E0808000078
S11300D000A0E0600000000008080808080800000C
S11300E000006060000000006030180C060301008E
S11300F03E7F594D7F3E000042427F7F40400000DA
S1130100627359496F660000226349497F360000D3
S1130110181C16137F7F1000276745457D390000A2
S11301203C7E4B4979300000036371190F070000CE
S1130130367F49497F360000064F49693F1E00005B
S113014000006C6C0000000000A0EC6C00000000DB
S1130150081C366341000000141414141414000025
S1130160004163361C080000020351590F060000C9
S11301703E7F415D5D1F1E007C7E13137E7C00006C
S1130180417F7F49497F36001C3E63414163220021
S1130190417F7F41637F1C00417F7F495D41630054
S11301A0417F7F491D0103001C3E6341517372006E
S11301B07F7F08087F7F000000417F7F41000000AF
S11301C0307040417F3F0100417F7F081C7763000E
S11301D0417F7F41406070007F7F060C067F7F0077
S11301E07F7F060C187F7F001C3E6341633E1C002A
S11301F0417F7F49090F06001E3F21717F5E000089
S1130200417F7F19396F460026674D597B320000C4
S113021003417F7F410300007F7F40407F7F0000D8
S11302201F3F60603F1F00007F7F3018307F7F00DA
S113023063771C081C776300074F78784F0700002A
S11302406773594D47637100007F7F41410000008F
S11302500103060C183060000041417F7F0000005C
S1130260080C0603060C0800808080808080808053
S11302700000030704000000207454543C7840003C
S1130280413F7F44447C3800387C44446C2800005F
S1130290307848493F7F4000387C54545C18000053
S11302A0487E7F490302000098BCA4A4F87C0400A3
S11302B0417F7F08047C780000447D7D400000007D
S11302C040C484FD7D000000417F7F10386C4400F1
S11302D000417F7F400000007C7C0C180C7C78007F
S11302E07C7C04047C780000387C44447C38000026
S11302F084FCF8A4243C1800183C24A4F8FC8400D2
S1130300447C78441C180000485C54547424000055
S113031000043E7F442400003C7C40403C7C400080
S11303201C3C60603C1C00003C7C6030607C3C00F9
S1130330446C3810386C44009CBCA0A0FC7C0000C9
S11303404C64745C4C64000008083E774141000032
S113035000000077770000004141773E0808000064
S1130360020301030203010011241FBECFEFD4E0F6
S1130370DEBFCDBF11E0A0E0B1E0E2EEF9E002C0E3
S113038005900D92A630B107D9F721E0A6E0B1E0BF
S113039001C01D92A031B207E1F70E94D3010C9471
S11303A0EF040C940000CF93DF93CDB7DEB728970A
S11303B00FB6F894DEBF0FBECDBF0E941B030E9490
S11303C03B030E940A020E94C5020E942E0210E012
S11303D020E00EC0822F90E0FC01E058FE4FE49133
S11303E0A1E0B0E0AC0FBD1FA80FB91FEC932F5FC5
S11303F0283080F368E0CE0101960E94A40264E6EE
S113040070E080E090E00E942A031F5F143601F739
S113041010E0DECF81B3806181BBEBE8F0E0808146
S113042080648083EAE8F0E08081896080831092B0
S1130430870010928600EFEFF3E188E0808388E480
S1130440808388E8808388EC8083089528B32B7F99
S113045028BB70E041E00E94D1020895CF93DF935E
S113046000D01F92CDB7DEB787B3846087BB8EEA16
S1130470898361E0CE0101960E94260285ED89837D
S113048080EF8A8362E0CE0101960E94260288EA08
S113049089838FE38A8362E0CE0101960E9426025B
S11304A083ED89831A8262E0CE0101960E942602BE
S11304B088E4898361E0CE0101960E94260281E2EC
S11304C089831A828FE78B8363E0CE0101960E94B1
S11304D0260281EA898361E0CE0101960E94260208
S11304E080EC898361E0CE0101960E9426028AEDA8
S11304F0898382E18A8362E0CE0101960E9426020A
S113050081E889838FEF8A8362E0CE0101960E949D
S1130510260286EA898361E0CE0101960E942602C2
S113052084EA898361E0CE0101960E9426028FEA63
S1130530898361E0CE0101960E9426020F900F90FC
S11305400F90DF91CF91089528B3246028BB70E009
S113055041E00E94D102089588B38A6188BB08955E
S1130560CF93C82F0E94AC02C23019F488B38D7F98
S113057088BBC13019F488B3877F88BBC11103C01D
S113058088B38F7E88BBCF91089587B38A6B87BB6E
S11305900E94AC028DB180618DB98DB180648DB93A
S11305A008950F931F93CF93DF938C01EB01842F56
S11305B00E94B00280E090E008C0F801E80FF91F43
S11305C020812FB9779BFECF01968C179D07A8F346
S11305D00E94AC02DF91CF911F910F91089510BC3E
S11305E08FE189B988E18AB908955D9BFECF8CB902
S11305F00895CF93C82F8A3019F48DE00E94F50234
S11306008C2F0E94F50280E090E0CF91089520E1C4
S113061037E2C9015F9BFECF9C0121503109892B30
S1130620C1F7232B11F08CB108958EEF08950E9429
S1130630070390E008950E94EF0267E173E089EFF9
S113064092E00E946003E6E0F1E093838283918369
S1130650808308959B01AC01ABEEB1E00E94460398
S113066004C06150710981099109623071058105E5
S11306709105B8F7089580B7806280BF86B786BFBA
S113068085B785BF85B7806885BF08950E945103EB
S1130690A59F900DB49F900DA49F800D911D1124D2
S11306A00895A29FB001B39FC001A39F700D811D47
S11306B01124911DB29F700D811D1124911D089567
S11306C00F931F93CF93DF93009731F46115710556
S11306D019F480E090E03AC08B01EC016EE070E028
S11306E081E090E00E94AB03FC01892B91F380E848
S11306F083830115110571F01387028781E88383D1
S11307008091060190910701892B21F4F093070150
S1130710E09306012097C9F0D187C0878381826066
S113072083838091080190910901892B71F4F093DE
S11307300901E093080180910A0190910B01892B32
S113074021F4F0930B01E0930A01CF01DF91CF91E3
S11307501F910F9108950F931F93CF93DF93869F5B
S11307608001879F100D969F100D1124C8010E94CF
S1130770C703EC01009729F0A80160E070E00E9433
S1130780E804CE01DF91CF911F910F9108950F934B
S11307901F93CF93DF938230910510F482E090E0B1
S11307A0E0910E01F0910F0120E030E0A0E0B0E014
S11307B0309719F1408151810281138148175907FB
S11307C0C8F08417950769F4109731F012960C93CA
S11307D0129713961C9327C000930E0110930F01D8
S11307E022C02115310519F04217530718F49A0154
S11307F0BD01EF01DF01F801DBCF21153105F9F06F
S1130800281B390B2430310580F48A819B816115C2
S1130810710521F0FB019383828304C090930F013F
S113082080930E01FE01329644C0FE01E20FF31FD5
S11308308193919322503109398328833AC02091BE
S11308400C0130910D01232B41F4209102013091D0
S1130850030130930D0120930C012091000130918C
S113086001012115310541F42DB73EB74091040132
S113087050910501241B350BE0910C01F0910D0101
S1130880E217F307A0F42E1B3F0B2817390778F063
S1130890AC014E5F5F4F2417350748F04E0F5F1FC2
S11308A050930D0140930C018193919302C0E0E0B9
S11308B0F0E0CF01DF91CF911F910F910895CF9375
S11308C0DF93009709F481C0FC01329713821282EE
S11308D0A0910E01B0910F01109781F42081318114
S11308E0820F931F20910C0130910D0128173907B5
S11308F051F5F0930D01E0930C0167C0ED0120E088
S113090030E0CE17DF0740F44A815B819E01411538
S11309105105F1F0EA01F5CFD383C28340815181BF
S1130920840F951FC817D90759F488819981840FBA
S1130930951F0296918380838A819B81938382830E
S11309402115310529F4F0930F01E0930E013DC008
S1130950E901FB83EA8349915991C40FD51FEC1730
S1130960FD0761F480819181840F951F0296E9014E
S113097099838883828193819B838A83E0E0F0E07A
S113098012968D919C911397009719F0FD01DC014B
S1130990F7CF8D919C9111979D012E5F3F4F820F50
S11309A0931F20910C0130910D012817390769F428
S11309B0309729F410920F0110920E0102C0138295
S11309C01282B0930D01A0930C01DF91CF91089591
S11309D0DC0101C06D9341505040E0F70895F89454
S10509E0FFCF43
S10909E2000010012000DA
S9030000FC
