S01B000042696742656175746966756C42726F6A6563742E737265638D
S11300000C9438000C9455000C9455000C94550035
S11300100C9455000C9455000C9455000C94550008
S11300200C9455000C9455000C9455000C945500F8
S11300300C9455000C9455000C9455000C945500E8
S11300400C9455000C9455000C9455000C945500D8
S11300500C9455000C9455000C9455000C945500C8
S11300600C9455000C9455000C9455000C945500B8
S113007011241FBECFEFD4E0DEBFCDBF11E0A0E05E
S1130080B1E0EEEFFCE002C005900D92A03FB10795
S1130090D9F721E0A0EFB1E001C01D92AA3FB20759
S11300A0E1F70E9457000C947D060C9400000E9416
S11300B08A000E9499000E94A400FFCF10BC8FE127
S11300C089B988E18AB908955D9BFECF8CB90895FA
S11300D0CF93C82F8A3019F48DE00E9464008C2FCE
S11300E00E94640080E090E0CF91089520E137E21F
S11300F0C9015F9BFECF9C0121503109892BC1F7B7
S1130100232B11F08CB108958EEF08950E94760090
S113011090E008950E945E0066E870E088E690E052
S11301200E947D01E0EFF1E09383828391838083D9
S1130130089580B7806280BF86B786BF85B785BFC4
S113014085B7806885BF0895EF92FF920F931F9340
S1130150CF93DF930E948A008AE091E00E94DE013F
S11301600E946D017C010E947201C0E0D0E000E0B9
S113017010E020C00E946D01FE01F85E80832081A2
S11301802817B9F099279F938F931F922F93DF938A
S1130190CF9381E291E09F938F930E94C8010F5FF8
S11301A01F4F8DB79EB708960FB6F8949EBF0FBE2B
S11301B08DBF2196C11598E0D907E0F2C7010E94CE
S11301C07201C0E0D0E0E12CF12C20C00E946D014E
S11301D0FE01F85E20812817C1F099279F938F9321
S11301E01F922F93DF93CF938AE591E09F938F9390
S11301F00E94C8018FEFE81AF80A8DB79EB70896D7
S11302000FB6F8949EBF0FBE8DBF2196C11598E01E
S1130210D907E0F2FF92EF921F930F9387E991E0E1
S11302209F938F930E94C8010F900F900F900F908F
S11302300F900F90DF91CF911F910F91FF90EF904E
S113024008958F929F92AF92BF92CF92DF92EF92D6
S1130250FF92CF93DF93EC01688179818A819B813E
S1130260611571058105910521F464E279ED8BE551
S113027097E02DE133EF41E050E00E94E3054901AE
S11302805A019B01AC01A7EAB1E40E9402066B018A
S11302907C01ACEEB4EFA50194010E941006DC01D0
S11302A0CB018C0D9D1DAE1DBF1DB7FF03C0019773
S11302B0A109B04888839983AA83BB839F77DF9180
S11302C0CF91FF90EF90DF90CF90BF90AF909F9031
S11302D08F9008950E942101089580E091E00E948A
S11302E021010895A0E0B0E0809300019093010102
S11302F0A0930201B093030108950F931F93CF932A
S1130300DF93009731F46115710519F480E090E0F2
S11303103AC08B01EC016EE070E081E090E00E9455
S1130320EF03FC01892B91F380E883830115110508
S113033071F01387028781E883838091F0019091A3
S1130340F101892B21F4F093F101E093F00120975E
S1130350C9F0D187C0878381826083838091F20151
S11303609091F301892B71F4F093F301E093F2017E
S11303708091F4019091F501892B21F4F093F5011A
S1130380E093F401CF01DF91CF911F910F91089574
S1130390A0E0B0E0EEECF1E00C942506AE014B5F7A
S11303A05F4FFA0161917191AF018091F2019091D7
S11303B0F3010E940E02E2E00C9441060F931F9396
S11303C0CF93DF93E091F201F091F301238121FFB8
S11303D01BC08C01D0E0C0E0F80181918F016091D5
S11303E0F2017091F301DB011896ED91FC911997DC
S11303F0882331F00995892B79F3DFEFCFEFECCF28
S11304008AE00995892B19F08FEF9FEF02C08D2F99
S11304109C2FDF91CF911F910F910895ABE0B0E035
S1130420E4E1F2E00C9415066C017B018A01FC0105
S113043017821682838181FFCCC1CE0101963C01D3
S1130440F6019381F70193FD859193FF81917F01DB
S1130450882309F4BAC1853239F493FD859193FF59
S113046081917F01853229F4B60190E00E9449050B
S1130470E7CF912C212C312CFFE1F315D8F08B32EE
S113048079F038F4803279F08332A1F4232D20619D
S11304901DC08D3261F0803369F4232D216016C0B4
S11304A0832D8260382EE32DE4603E2E2AC0F32D86
S11304B0F8601DC037FC2DC020ED280F2A3040F015
S11304C08E32B9F436FC81C1232D2064322E19C03A
S11304D036FE06C08AE0989E200D1124922E11C08B
S11304E0EAE02E9E200D1124222EF32DF0623F2EE1
S11304F008C08C3621F4832D8068382E02C08836DB
S113050041F4F70193FD859193FF81917F0181115E
S1130510B3CF982F9F7D9554933028F40C5F1F4FD1
S11305209FE399830DC0833631F0833771F08335AF
S113053009F059C021C0F801808189830E5F1F4FE3
S113054088248394912C530113C02801F2E04F0EA8
S1130550511CF801A080B18036FE03C0692D70E003
S113056002C06FEF7FEFC5010E943E054C0182017E
S1130570F32DFF773F2E16C0280122E0420E511CB6
S1130580F801A080B18036FE03C0692D70E002C07E
S11305906FEF7FEFC5010E942C054C01F32DF0682D
S11305A03F2E820133FC1BC0822D90E088169906F1
S11305B0B0F4B60180E290E00E9449052A94F4CF99
S11305C0F50137FC859137FE81915F01B60190E01A
S11305D00E94490521102A9421E0821A910881146D
S11305E0910471F7E8C0843611F0893641F5F801B9
S11305F037FE07C060817181828193810C5F1F4F38
S113060008C060817181072E000C880B990B0E5F66
S11306101F4FF32DFF763F2E97FF09C090958095CD
S1130620709561957F4F8F4F9F4FF0683F2E2AE062
S113063030E0A3010E948505882E861845C08537C1
S113064031F4232D2F7EB22E2AE030E025C0932DE5
S1130650997FB92E8F36C1F018F4883579F0B5C07A
S1130660803719F0883721F0B0C0E92FE061BE2E41
S1130670B4FE0DC0FB2DF460BF2E09C034FE0AC0C9
S1130680292F2660B22E06C028E030E005C020E104
S113069030E002C020E132E0F801B7FE07C060811B
S11306A07181828193810C5F1F4F06C060817181CB
S11306B080E090E00E5F1F4FA3010E948505882E05
S11306C08618FB2DFF773F2E36FE0DC0232D2E7F7F
S11306D0A22E891458F434FE0BC032FC09C0832DB9
S11306E08E7EA82E05C0B82CA32C03C0B82C01C044
S11306F0B92CA4FE0FC0FE01E80DF11D80818033EA
S113070021F49A2D997EA92E09C0A2FE06C0B394A5
S1130710B39404C08A2D867809F0B394A3FC11C065
S1130720A0FE06C0B21488F4280C922C9B180EC0AC
S1130730B21460F4B60180E290E00E944905B394DB
S1130740F7CFB21418F42B1802C0982C212CA4FE55
S113075010C0B60180E390E00E944905A2FE17C0D4
S1130760A1FC03C088E790E002C088E590E0B601F0
S11307700CC08A2D867859F0A1FE02C08BE201C01C
S113078080E2A7FC8DE2B60190E00E94490589143D
S113079038F4B60180E390E00E9449059A94F7CFBB
S11307A08A94F301E80DF11D8081B60190E00E9466
S11307B049058110F5CF222009F442CEB60180E22A
S11307C090E00E9449052A94F6CFF601868197812C
S11307D002C08FEF9FEF2B96E2E10C9431060F934A
S11307E01F93CF93DF93869F8001879F100D969F61
S11307F0100D1124C8010E940B04EC01009729F08C
S1130800A80160E070E00E943705CE01DF91CF912E
S11308101F910F9108950F931F93CF93DF9382300D
S1130820910510F482E090E0E091F801F091F90173
S113083020E030E0A0E0B0E0309719F14081518130
S11308400281138148175907C8F08417950769F482
S1130850109731F012960C93129713961C9327C09D
S11308600093F8011093F90122C02115310519F004
S11308704217530718F49A01BD01EF01DF01F80193
S1130880DBCF21153105F9F0281B390B2430310554
S113089080F48A819B816115710521F0FB019383AA
S11308A0828304C09093F9018093F801FE0132968B
S11308B044C0FE01E20FF31F81939193225031094A
S11308C0398328833AC02091F6013091F701232B14
S11308D041F420910601309107013093F7012093F0
S11308E0F60120910401309105012115310541F4EF
S11308F02DB73EB74091080150910901241B350BD7
S1130900E091F601F091F701E217F307A0F42E1B32
S11309103F0B2817390778F0AC014E5F5F4F24175F
S1130920350748F04E0F5F1F5093F7014093F601CF
S11309308193919302C0E0E0F0E0CF01DF91CF9189
S11309401F910F910895CF93DF93009709F481C00D
S1130950FC01329713821282A091F801B091F9013F
S1130960109781F420813181820F931F2091F60129
S11309703091F7012817390751F5F093F701E09307
S1130980F60167C0ED0120E030E0CE17DF0740F448
S11309904A815B819E0141155105F1F0EA01F5CFD1
S11309A0D383C28340815181840F951FC817D9070F
S11309B059F488819981840F951F029691838083CD
S11309C08A819B81938382832115310529F4F093D5
S11309D0F901E093F8013DC0E901FB83EA83499101
S11309E05991C40FD51FEC17FD0761F480819181E3
S11309F0840F951F0296E9019983888382819381EC
S1130A009B838A83E0E0F0E012968D919C9113978A
S1130A10009719F0FD01DC01F7CF8D919C9111979E
S1130A209D012E5F3F4F820F931F2091F60130915D
S1130A30F7012817390769F4309729F41092F9015E
S1130A401092F80102C013821282B093F701A093AE
S1130A50F601DF91CF910895FC010590615070403B
S1130A600110D8F7809590958E0F9F1F0895DC0193
S1130A7001C06D9341505040E0F70895FC0161506E
S1130A80704001900110D8F7809590958E0F9F1FAC
S1130A9008950F931F93CF93DF93FB01238121FDCF
S1130AA003C08FEF9FEF2CC022FF16C046815781F1
S1130AB0248135814217530744F4A081B1819D01FB
S1130AC02F5F3F4F318320838C93268137812F5FA3
S1130AD03F4F3783268314C08B01EC01FB01008454
S1130AE0F185E02D0995892BE1F6D80116968D91B3
S1130AF09C911797019617969C938E931697CE0107
S1130B00DF91CF911F910F910895FA01AA27283000
S1130B1051F1203181F1E8946F936E7F6E5F7F4FC6
S1130B208F4F9F4FAF4FB1E03ED0B4E03CD0670F42
S1130B30781F891F9A1FA11D680F791F8A1F911D95
S1130B40A11D6A0F711D811D911DA11D20D009F4E5
S1130B5068943F912AE0269F11243019305D319327
S1130B60DEF6CF010895462F4770405D4193B3E010
S1130B700FD0C9F7F6CF462F4F70405D4A3318F0B7
S1130B80495D31FD4052419302D0A9F7EACFB4E068
S1130B90A6959795879577956795BA95C9F7009720
S1130BA06105710508959B01AC010A2E06945795C1
S1130BB0479537952795BA95C9F7620F731F841F18
S1130BC0951FA01D0895052E97FB1EF400940E9406
S1130BD0FA0557FD07D00E944C0607FC03D04EF4DB
S1130BE00C94FA0550954095309521953F4F4F4F01
S1130BF05F4F089590958095709561957F4F8F4FC5
S1130C009F4F08950E946E06A59F900DB49F900D6E
S1130C10A49F800D911D11240895B7FF0C94020622
S1130C200E940206821B930B08952F923F924F92CB
S1130C305F926F927F928F929F92AF92BF92CF9268
S1130C40DF92EF92FF920F931F93CF93DF93CDB771
S1130C50DEB7CA1BDB0B0FB6F894DEBF0FBECDBFE9
S1130C6009942A88398848885F846E847D848C84BA
S1130C709B84AA84B984C884DF80EE80FD800C81C3
S1130C801B81AA81B981CE0FD11D0FB6F894DEBFA6
S1130C900FBECDBFED010895A1E21A2EAA1BBB1B06
S1130CA0FD010DC0AA1FBB1FEE1FFF1FA217B30734
S1130CB0E407F50720F0A21BB30BE40BF50B661F4A
S1130CC0771F881F991F1A9469F76095709580950E
S1130CD090959B01AC01BD01CF010895A29FB00185
S1130CE0B39FC001A39F700D811D1124911DB29F5C
S1110CF0700D811D1124911D0895F894FFCFFD
S1130CFE010000000000FA0120005374617274694F
S1130D0E6E67205352414D20746573742E2E2E201F
S1130D1E005772697465207068617365206572721C
S1130D2E6F723A206578745F72616D5B2534645D11
S1130D3E203D2025303258202873686F756C64204E
S1130D4E62652025303258290A005265747269652D
S1130D5E76616C207068617365206572726F723A89
S1130D6E206578745F72616D5B2534645D203D206F
S1130D7E25303258202873686F756C6420626520A4
S1130D8E25303258290A005352414D20746573742C
S1130D9E20636F6D706C6574656420776974682068
S1130DAE0A253464206572726F727320696E20771F
S1130DBE7269746520706861736520616E64200ABF
S1130DCE253464206572726F727320696E207265A9
S1130DDE7472696576616C2070686173650A0A00C5
S9030000FC
