S01B000042696742656175746966756C42726F6A6563742E737265638D
S11300000C9438000C9455000C9455000C94550035
S11300100C9455000C9455000C9455000C94550008
S11300200C9455000C9455000C9455000C945500F8
S11300300C9455000C9455000C9455000C945500E8
S11300400C9455000C9455000C9455000C945500D8
S11300500C9455000C9455000C9455000C945500C8
S11300600C9455000C9455000C9455000C945500B8
S113007011241FBECFEFD4E0DEBFCDBF11E0A0E05E
S1130080B1E0EEE4F7E002C005900D92A630B107AE
S1130090D9F721E0A6E0B1E001C01D92A031B2077A
S11300A0E1F70E9457000C94A5030C9400000E94F1
S11300B0C6010E94F1010E9475000E9459010E942C
S11300C0A700C0E0CE3F09F4C0E061E086E00E94F2
S11300D01D016C2F82E00E9439016AE070E080E02B
S11300E090E00E94D501CF5FEDCF81B3806181BBE9
S11300F0EBE8F0E0808180648083EAE8F0E08081CE
S1130100896080831092870010928600EFEFF3E1FC
S113011088E0808388E4808388E8808388EC808317
S113012008950F931F93CF938C01C62F88B38B7FB1
S113013088BB81E00E9465016C2F70E0C8010E94B9
S11301407E010E945501CF911F910F910895CF9385
S1130150DF9300D01F92CDB7DEB787B3846087BB2F
S11301608EEA898361E0CE0101960E94910085EDBB
S1130170898380EF8A8362E0CE0101960E94910018
S113018088EA89838FE38A8362E0CE0101960E9424
S1130190910083ED89831A8262E0CE0101960E9468
S11301A0910088E4898361E0CE0101960E94910068
S11301B081E289831A828FE78B8363E0CE01019603
S11301C00E94910081EA898361E0CE0101960E9438
S11301D0910080EC898361E0CE0101960E94910038
S11301E08AED898382E18A8362E0CE0101960E94CE
S11301F0910081E889838FEF8A8362E0CE010196C2
S11302000E94910086EA898361E0CE0101960E94F2
S1130210910084EA898361E0CE0101960E949100F5
S11302208FEA898361E0CE0101960E9491000F90CC
S11302300F900F90DF91CF910895CF93DF93C62F46
S1130240DFEFD80F80E00E94650185E00E947A010B
S113025068E270E080E090E00E94E6018D2F0E9449
S11302607A018C2F0E947A010E945501DF91CF916F
S11302700895CF93DF93C62FDFEFD80F80E00E945D
S1130280650186E00E947A0168E270E080E090E017
S11302900E94E6018D2F0E947A018C2F0E947A0120
S11302A00E945501DF91CF91089588B38A6188BB7C
S11302B0089587B38A6B87BB0E9455018DB1806115
S11302C08DB98DB180648DB90895CF93C82F0E94E4
S11302D05501C23019F488B38D7F88BBC13019F43D
S11302E088B3877F88BBC11103C088B38F7E88BB66
S11302F0CF9108958FB9779BFECF0895EF92FF9227
S11303000F931F93CF93DF937C018B01C0E0D0E068
S113031007C0F701EC0FFD1F80810E947A0121962E
S1130320C017D107B0F3DF91CF911F910F91FF90C8
S1130330EF90089510BC8FE189B988E18AB90895D6
S11303405D9BFECF8CB90895CF93C82F8A3019F4E2
S11303508DE00E94A0018C2F0E94A00180E090E01B
S1130360CF91089520E137E2C9015F9BFECF9C0144
S113037021503109892BC1F7232B11F08CB1089539
S11303808EEF08950E94B20190E008950E949A01B0
S113039062EC71E084EA91E00E941602E6E0F1E08A
S11303A0938382839183808308959B01AC01ABEE98
S11303B0B1E00E94FC0104C06150710981099109F6
S11303C06230710581059105B8F7089504C0615044
S11303D07109810991096230710581059105B8F7A8
S11303E0089580B7806280BF86B786BF85B785BF12
S11303F085B7806885BF08950E940702A59F900D68
S1130400B49F900DA49F800D911D11240895A29F67
S1130410B001B39FC001A39F700D811D1124911DD4
S1130420B29F700D811D1124911D08950F931F9388
S1130430CF93DF93009731F46115710519F480E0CF
S113044090E03AC08B01EC016EE070E081E090E056
S11304500E946102FC01892B91F380E883830115DA
S1130460110571F01387028781E883838091060167
S113047090910701892B21F4F0930701E093060181
S11304802097C9F0D187C08783818260838380915C
S1130490080190910901892B71F4F0930901E0930B
S11304A0080180910A0190910B01892B21F4F093AA
S11304B00B01E0930A01CF01DF91CF911F910F91BE
S11304C008950F931F93CF93DF93869F8001879F97
S11304D0100D969F100D1124C8010E947D02EC019D
S11304E0009729F0A80160E070E00E949E03CE010D
S11304F0DF91CF911F910F9108950F931F93CF9385
S1130500DF938230910510F482E090E0E0910E01D7
S1130510F0910F0120E030E0A0E0B0E0309719F155
S1130520408151810281138148175907C8F084170B
S1130530950769F4109731F012960C93129713965D
S11305401C9327C000930E0110930F0122C02115A4
S1130550310519F04217530718F49A01BD01EF0150
S1130560DF01F801DBCF21153105F9F0281B390B28
S11305702430310580F48A819B816115710521F055
S1130580FB019383828304C090930F0180930E0137
S1130590FE01329644C0FE01E20FF31F8193919352
S11305A022503109398328833AC020910C013091BB
S11305B00D01232B41F4209102013091030130936A
S11305C00D0120930C0120910001309101012115AE
S11305D0310541F42DB73EB7409104015091050116
S11305E0241B350BE0910C01F0910D01E217F30788
S11305F0A0F42E1B3F0B2817390778F0AC014E5F8F
S11306005F4F2417350748F04E0F5F1F50930D01BD
S113061040930C018193919302C0E0E0F0E0CF019C
S1130620DF91CF911F910F910895CF93DF9300979E
S113063009F481C0FC01329713821282A0910E0149
S1130640B0910F01109781F420813181820F931FA3
S113065020910C0130910D012817390751F5F093C1
S11306600D01E0930C0167C0ED0120E030E0CE17EE
S1130670DF0740F44A815B819E0141155105F1F089
S1130680EA01F5CFD383C28340815181840F951F42
S1130690C817D90759F488819981840F951F029648
S11306A0918380838A819B81938382832115310581
S11306B029F4F0930F01E0930E013DC0E901FB839F
S11306C0EA8349915991C40FD51FEC17FD0761F4D2
S11306D080819181840F951F0296E9019983888313
S11306E0828193819B838A83E0E0F0E012968D916E
S11306F09C911397009719F0FD01DC01F7CF8D91C0
S11307009C9111979D012E5F3F4F820F931F209163
S11307100C0130910D012817390769F4309729F439
S113072010920F0110920E0102C013821282B09334
S11307300D01A0930C01DF91CF910895DC0101C05C
S11107406D9341505040E0F70895F894FFCFB8
S109074E00001001200070
S9030000FC
