S01B000042696742656175746966756C42726F6A6563742E737265638D
S11300000C9438000C9455000C9455000C94550035
S11300100C9455000C9455000C9455000C94550008
S11300200C9455000C9455000C9455000C945500F8
S11300300C9455000C9455000C9455000C945500E8
S11300400C9455000C9455000C9455000C945500D8
S11300500C9455000C9455000C9455000C945500C8
S11300600C9455000C9455000C9455000C945500B8
S113007011241FBECFEFD4E0DEBFCDBF11E0A0E05E
S1130080B1E0E0EDFDE002C005900D92AC31B107A6
S1130090D9F721E0ACE1B1E001C01D92A133B20770
S11300A0E1F70E9457000C94E6060C9400000E94AD
S11300B029020E9454020E9483000E9496010E9419
S11300C0B5000E944A01ECE1F1E027819681858127
S11300D01F922F931F929F931F928F9386E091E01C
S11300E09F938F930E94C40264E670E080E090E0E6
S11300F00E9438028DB79EB708960FB6F8949EBF3B
S11301000FBE8DBFDECF81B3806181BBEBE8F0E031
S1130110808180648083EAE8F0E080818960808364
S11301201092870010928600EFEFF3E188E080835D
S113013088E4808388E8808388EC808308950F9323
S11301401F93CF938C01C62F88B38B7F88BB81E02C
S11301500E94A2016C2F70E0C8010E94BB010E94A2
S11301609201CF911F910F910895CF93DF9300D007
S11301701F92CDB7DEB787B3846087BB8EEA8983CD
S113018061E0CE0101960E949F0085ED898380EF96
S11301908A8362E0CE0101960E949F0088EA8983E7
S11301A08FE38A8362E0CE0101960E949F0083ED73
S11301B089831A8262E0CE0101960E949F0088E43E
S11301C0898361E0CE0101960E949F0081E28983C8
S11301D01A828FE78B8363E0CE0101960E949F0011
S11301E081EA898361E0CE0101960E949F0080EC40
S11301F0898361E0CE0101960E949F008AED898384
S113020082E18A8362E0CE0101960E949F0081E828
S113021089838FEF8A8362E0CE0101960E949F005A
S113022086EA898361E0CE0101960E949F0084EAF8
S1130230898361E0CE0101960E949F008FEA898341
S113024061E0CE0101960E949F000F900F900F90E5
S1130250DF91CF9108950F931F93CF93DF93D82FFE
S11302608B01C42F80E00E94A2018D2F0E94B70150
S113027068E270E080E090E00E9449026C2F70E038
S1130280C8010E94DC010E949201DF91CF911F916D
S11302900F9108950F931F93CF93DF9300D01F9274
S11302A0CDB7DEB743E0BE016F5F7F4F81E00E94B0
S11302B02B0189810CE111E0F80180838A8181831B
S11302C08B81828342E0BE016F5F7F4F82E00E9498
S11302D02B018981F80183838A81848343E0BE01F1
S11302E06F5F7F4F83E00E942B018981F801858332
S11302F08A8186838B81878343E0BE016F5F7F4F52
S113030084E00E942B018981F80180878A8181879A
S11303108B8182870F900F900F90DF91CF911F9167
S11303200F91089588B38A6188BB089587B38A6B57
S113033087BB0E9492018DB180618DB98DB18064BB
S11303408DB90895CF93C82F0E949201C23019F439
S113035088B38D7F88BBC13019F488B3877F88BB8D
S1130360C11103C088B38F7E88BBCF9108958FB924
S1130370779BFECF0895EF92FF920F931F93CF9335
S1130380DF937C018B01C0E0D0E007C0F701EC0FE4
S1130390FD1F80810E94B7012196C017D107B0F3D9
S11303A0DF91CF911F910F91FF90EF90089580E01E
S11303B00E94B7018FB10895CF92DF92EF92FF921E
S11303C00F931F93CF93DF936C017B01C0E0D0E0C8
S11303D008C086010C0F1D1F0E94D701F8018083FD
S11303E02196CE15DF05A8F3DF91CF911F910F91D0
S11303F0FF90EF90DF90CF90089510BC8FE189B902
S113040088E18AB908955D9BFECF8CB90895CF9396
S1130410C82F8A3019F48DE00E9403028C2F0E94A9
S1130420030280E090E0CF91089520E137E2C90112
S11304305F9BFECF9C0121503109892BC1F7232BEF
S113044011F08CB108958EEF08950E94150290E08A
S113045008950E94FD0165E272E087E092E00E9447
S11304607902E7E2F1E093838283918380830895A4
S11304709B01AC01ABEEB1E00E945F0204C061508D
S11304807109810991096230710581059105B8F7F7
S1130490089504C0615071098109910962307105A0
S11304A081059105B8F7089580B7806280BF86B74B
S11304B086BF85B785BF85B7806885BF08950E94CC
S11304C06A02A59F900DB49F900DA49F800D911D6D
S11304D011240895A29FB001B39FC001A39F700D82
S11304E0811D1124911DB29F700D811D1124911D38
S11304F008950F931F93CF93DF93009731F4611501
S1130500710519F480E090E03AC08B01EC016EE0D3
S113051070E081E090E00E94BB04FC01892B91F320
S113052080E883830115110571F01387028781E840
S113053083838091270190912801892B21F4F093E2
S11305402801E09327012097C9F0D187C0878381D0
S1130550826083838091290190912A01892B71F40F
S1130560F0932A01E093290180912B0190912C01B1
S1130570892B21F4F0932C01E0932B01CF01DF911F
S1130580CF911F910F910895A0E0B0E0EAECF2E062
S11305900C94BF06AE014B5F5F4FFA0161917191FC
S11305A0AF018091290190912A010E94DA02E2E0D0
S11305B00C94DB06ABE0B0E0E0EEF2E00C94AF06A6
S11305C06C017B018A01FC0117821682838181FF01
S11305D0CCC1CE0101963C01F6019381F70193FD54
S11305E0859193FF81917F01882309F4BAC18532F3
S11305F039F493FD859193FF81917F01853229F42C
S1130600B60190E00E941506E7CF912C212C312CE5
S1130610FFE1F315D8F08B3279F038F4803279F0B9
S11306208332A1F4232D20611DC08D3261F080330B
S113063069F4232D216016C0832D8260382EE32DAA
S1130640E4603E2E2AC0F32DF8601DC037FC2DC097
S113065020ED280F2A3040F08E32B9F436FC81C1E7
S1130660232D2064322E19C036FE06C08AE0989EDF
S1130670200D1124922E11C0EAE02E9E200D11248B
S1130680222EF32DF0623F2E08C08C3621F4832DE8
S11306908068382E02C0883641F4F70193FD8591B5
S11306A093FF81917F018111B3CF982F9F7D955442
S11306B0933028F40C5F1F4F9FE399830DC083365A
S11306C031F0833771F0833509F059C021C0F80146
S11306D0808189830E5F1F4F88248394912C53015A
S11306E013C02801F2E04F0E511CF801A080B18024
S11306F036FE03C0692D70E002C06FEF7FEFC501C5
S11307000E940A064C018201F32DFF773F2E16C08A
S1130710280122E0420E511CF801A080B18036FE6F
S113072003C0692D70E002C06FEF7FEFC5010E9426
S1130730F8054C01F32DF0683F2E820133FC1BC0F9
S1130740822D90E088169906B0F4B60180E290E01C
S11307500E9415062A94F4CFF50137FC859137FEE3
S113076081915F01B60190E00E94150621102A9440
S113077021E0821A91088114910471F7E8C084364B
S113078011F0893641F5F80137FE07C060817181A7
S1130790828193810C5F1F4F08C060817181072E95
S11307A0000C880B990B0E5F1F4FF32DFF763F2E25
S11307B097FF09C090958095709561957F4F8F4FF5
S11307C09F4FF0683F2E2AE030E0A3010E945106BB
S11307D0882E861845C0853731F4232D2F7EB22EFE
S11307E02AE030E025C0932D997FB92E8F36C1F0D1
S11307F018F4883579F0B5C0803719F0883721F0BE
S1130800B0C0E92FE061BE2EB4FE0DC0FB2DF46034
S1130810BF2E09C034FE0AC0292F2660B22E06C09E
S113082028E030E005C020E130E002C020E132E001
S1130830F801B7FE07C060817181828193810C5FEA
S11308401F4F06C06081718180E090E00E5F1F4FF2
S1130850A3010E945106882E8618FB2DFF773F2E98
S113086036FE0DC0232D2E7FA22E891458F434FE9B
S11308700BC032FC09C0832D8E7EA82E05C0B82C77
S1130880A32C03C0B82C01C0B92CA4FE0FC0FE01D8
S1130890E80DF11D8081803321F49A2D997EA92ED3
S11308A009C0A2FE06C0B394B39404C08A2D86780E
S11308B009F0B394A3FC11C0A0FE06C0B21488F4DE
S11308C0280C922C9B180EC0B21460F4B60180E27E
S11308D090E00E941506B394F7CFB21418F42B18C5
S11308E002C0982C212CA4FE10C0B60180E390E035
S11308F00E941506A2FE17C0A1FC03C088E790E081
S113090002C088E590E0B6010CC08A2D867859F0C3
S1130910A1FE02C08BE201C080E2A7FC8DE2B60119
S113092090E00E941506891438F4B60180E390E043
S11309300E9415069A94F7CF8A94F301E80DF11DED
S11309408081B60190E00E9415068110F5CF222027
S113095009F442CEB60180E290E00E9415062A9482
S1130960F6CFF6018681978102C08FEF9FEF2B9619
S1130970E2E10C94CB060F931F93CF93DF93869FF2
S11309808001879F100D969F100D1124C8010E94AD
S1130990D704EC01009729F0A80160E070E00E9400
S11309A00306CE01DF91CF911F910F9108950F930C
S11309B01F93CF93DF938230910510F482E090E08F
S11309C0E0912F01F091300120E030E0A0E0B0E0B0
S11309D0309719F1408151810281138148175907D9
S11309E0C8F08417950769F4109731F012960C93A8
S11309F0129713961C9327C000932F011093300174
S1130A0022C02115310519F04217530718F49A0131
S1130A10BD01EF01DF01F801DBCF21153105F9F04C
S1130A20281B390B2430310580F48A819B816115A0
S1130A30710521F0FB019383828304C090933001FC
S1130A4080932F01FE01329644C0FE01E20FF31F92
S1130A508193919322503109398328833AC020919C
S1130A602D0130912E01232B41F42091020130916C
S1130A70030130932E0120932D0120910001309128
S1130A8001012115310541F42DB73EB74091040110
S1130A9050910501241B350BE0912D01F0912E019D
S1130AA0E217F307A0F42E1B3F0B2817390778F041
S1130AB0AC014E5F5F4F2417350748F04E0F5F1FA0
S1130AC050932E0140932D018193919302C0E0E055
S1130AD0F0E0CF01DF91CF911F910F910895CF9353
S1130AE0DF93009709F481C0FC01329713821282CC
S1130AF0A0912F01B0913001109781F420813181B0
S1130B00820F931F20912D0130912E012817390750
S1130B1051F5F0932E01E0932D0167C0ED0120E023
S1130B2030E0CE17DF0740F44A815B819E01411516
S1130B305105F1F0EA01F5CFD383C283408151819D
S1130B40840F951FC817D90759F488819981840F98
S1130B50951F0296918380838A819B8193838283EC
S1130B602115310529F4F0933001E0932F013DC0A4
S1130B70E901FB83EA8349915991C40FD51FEC170E
S1130B80FD0761F480819181840F951F0296E9012C
S1130B9099838883828193819B838A83E0E0F0E058
S1130BA012968D919C911397009719F0FD01DC0129
S1130BB0F7CF8D919C9111979D012E5F3F4F820F2E
S1130BC0931F20912D0130912E012817390769F4C4
S1130BD0309729F41092300110922F0102C0138231
S1130BE01282B0932E01A0932D01DF91CF9108952D
S1130BF0FC010590615070400110D8F780959095E4
S1130C008E0F9F1F0895DC0101C06D934150504029
S1130C10E0F70895FC016150704001900110D8F78D
S1130C20809590958E0F9F1F08950F931F93CF93D8
S1130C30DF93FB01238121FD03C08FEF9FEF2CC0C5
S1130C4022FF16C0468157812481358142175307FC
S1130C5044F4A081B1819D012F5F3F4F31832083F4
S1130C608C93268137812F5F3F4F3783268314C0AF
S1130C708B01EC01FB010084F185E02D0995892BA2
S1130C80E1F6D80116968D919C91179701961796C7
S1130C909C938E931697CE01DF91CF911F910F9164
S1130CA00895FA01AA27283051F1203181F1E894FE
S1130CB06F936E7F6E5F7F4F8F4F9F4FAF4FB1E04B
S1130CC03ED0B4E03CD0670F781F891F9A1FA11D46
S1130CD0680F791F8A1F911DA11D6A0F711D811D47
S1130CE0911DA11D20D009F468943F912AE0269F0C
S1130CF011243019305D3193DEF6CF010895462F6B
S1130D004770405D4193B3E00FD0C9F7F6CF462F4B
S1130D104F70405D4A3318F0495D31FD40524193B4
S1130D2002D0A9F7EACFB4E0A69597958795779571
S1130D306795BA95C9F700976105710508959B01F8
S1130D40AC010A2E06945795479537952795BA9581
S1130D50C9F7620F731F841F951FA01D08952F925A
S1130D603F924F925F926F927F928F929F92AF9237
S1130D70BF92CF92DF92EF92FF920F931F93CF9384
S1130D80DF93CDB7DEB7CA1BDB0B0FB6F894DEBF1B
S1130D900FBECDBF09942A88398848885F846E8441
S1130DA07D848C849B84AA84B984C884DF80EE808B
S1130DB0FD800C811B81AA81B981CE0FD11D0FB694
S1130DC0F894DEBF0FBECDBFED010895F894FFCFB8
S1130DD0000031012000583A2025642C2059202598
S10F0DE0642C2042746E202564200A005C
S9030000FC
